:100000000C9435000C945D000C945D000C945D0024
:100010000C945D000C945D000C945D000C945D00EC
:100020000C945D000C945D000C945D000C945D00DC
:100030000C945D000C945D000C945D000C945D00CC
:100040000C94F6010C945D000C9446040C94780416
:100050000C945D000C945D000C945D000C945D00AC
:100060000C945D000C945D00A80411241FBECFEF1A
:10007000D8E0DEBFCDBF11E0A0E0B1E0ECE6FCE0EF
:1000800002C005900D92AC39B107D9F722E0ACE976
:10009000B1E001C01D92A138B207E1F710E0CAE655
:1000A000D0E004C02297FE010E943006C836D10776
:1000B000C9F70E94EC040C9434060C94000040ED47
:1000C00057E060E070E084EA91E00E945D0120E882
:1000D00035E240E050E064EE71E084EA91E00E9495
:1000E000700184EA91E00E945A0161E071E0809120
:1000F000D5019091D6010E9439056AE070E080E058
:1001000090E00E946F0241E060E084EA91E00E948A
:10011000DB0126E040E855E260E070E084EE91E02B
:100120000C94E403CF92DF92EF92FF920F931F9310
:100130000E944002672B682B692B41F40E94400209
:10014000623071058105910508F476C00E94400275
:1001500060939C0170939D0180939E0190939F01F9
:100160000091A0011091A1012091A2013091A30161
:10017000601771078207930740F46093A0017093A2
:10018000A1018093A2019093A3010091A00110917D
:10019000A1012091A2013091A3016B017C01C01A41
:1001A000D10AE20AF30A970186010A3F11052105E7
:1001B000310508F441C06093A0017093A1018093C0
:1001C000A2019093A30184EA91E00E945A0163E1A5
:1001D00071E08091D5019091D6010E9439056BE1C3
:1001E00071E08091D5019091D6010E9439050E945D
:1001F0004002AB01BC012AE030E08091D501909132
:10020000D6010E94F7056DE171E08091D5019091D2
:10021000D6010E94390565E070E080E090E00E9420
:100220006F026AE070E080E090E00E946F0261E09F
:1002300084EA91E00E949D018EE00E94E4024AE07F
:1002400050E0BC0184EE91E00E94DF0561E070E0C7
:1002500080E090E01F910F91FF90EF90DF90CF90A2
:100260000C946F020F931F93CF93DF93EC016623DF
:1002700059F00E94400269837A838B839C83DF91CB
:10028000CF911F910F9108950E94400209811A8118
:100290002B813C81601B710B820B930B64367105C3
:1002A0008105910530F763E070E080E090E00E9406
:1002B0006F02EACF60E00C943201FC0113AA14AA89
:1002C00015AA16AA118212821382148241155105B1
:1002D0006105710521F0CB01BA010C946F020895FC
:1002E000FB01BA01A901DC01D296FC93EE93D197F0
:1002F00026E0CF010C94E4031F93CF93DF93EC012E
:10030000162F66E271E089A99AA90E9439054AE090
:1003100050E0612F89A99AA90E9404066DE271E05C
:1003200089A99AA90E94390562E370E080E090E013
:10033000DF91CF911F910C946F021F93CF93DF93A6
:10034000EC01162F8D81882389F189A99AA9DC01F6
:10035000ED91FC910480F581E02D0995892BA9F39D
:1003600007C02637310519F12835310509F41D82FA
:1003700089A99AA9DC01ED91FC910480F581E02D19
:1003800009951816190694F489A99AA9DC01ED912A
:10039000FC910680F781E02D09959C0133272336D7
:1003A0003105F9F6612FCE010E947C0183E6DF91D1
:1003B000CF911F9108950F931F93CF93DF931F92B7
:1003C000CDB7DEB78C01662349F081E0F801858363
:1003D00060E0C80149830E949D014981F80145837D
:1003E0000F90DF91CF911F910F9108951F920F925F
:1003F0000FB60F9211242F933F938F939F93AF9338
:10040000BF938091DC019091DD01A091DE01B0915C
:10041000DF013091DB0123E0230F2D3720F401961B
:10042000A11DB11D05C026E8230F0296A11DB11D17
:100430002093DB018093DC019093DD01A093DE012A
:10044000B093DF018091E0019091E101A091E20180
:10045000B091E3010196A11DB11D8093E00190933D
:10046000E101A093E201B093E301BF91AF919F91AD
:100470008F913F912F910F900FBE0F901F90189565
:100480002FB7F8946091DC017091DD018091DE015D
:100490009091DF012FBF08953FB7F8948091E0015C
:1004A0009091E101A091E201B091E30126B5A89BF2
:1004B00005C02F3F19F00196A11DB11D3FBF662752
:1004C000782F892F9A2F620F711D811D911D42E097
:1004D000660F771F881F991F4A95D1F708958F924D
:1004E0009F92AF92BF92CF92DF92EF92FF926B01F9
:1004F0007C010E944C024B015C01C114D104E10457
:10050000F104F1F00E940B060E944C02681979096F
:100510008A099B09683E73408105910570F321E0CB
:10052000C21AD108E108F10888EE880E83E0981E0F
:10053000A11CB11CC114D104E104F10429F7DDCFE1
:10054000FF90EF90DF90CF90BF90AF909F908F90F3
:100550000895789484B5826084BD84B5816084BD3B
:1005600085B5826085BD85B5816085BDEEE6F0E02C
:10057000808181608083E1E8F0E010828081826088
:100580008083808181608083E0E8F0E08081816009
:100590008083E1EBF0E0808184608083E0EBF0E039
:1005A000808181608083EAE7F0E0808184608083DD
:1005B0008081826080838081816080838081806887
:1005C00080831092C10008958E3008F08E5087709D
:1005D0002091000190E4299F90011124822B8093A7
:1005E0007C0080917A00806480937A0080917A0008
:1005F00086FDFCCF809178002091790090E0922BCD
:100600000895FC01818D228D90E0805C9F4F821BBC
:1006100091098F7399270895FC01918D828D981708
:1006200031F0828DE80FF11D858D90E008958FEFF8
:100630009FEF0895FC01918D828D981761F0828D56
:10064000DF01A80FB11D5D968C91928D9F5F9F7306
:10065000928F90E008958FEF9FEF08958EE994E0D8
:10066000892B49F080E090E0892B29F00E949E04BC
:1006700081110C9400000895FC01848DDF01A80F06
:10068000B11DA35ABF4F2C91848D90E001968F73BA
:100690009927848FA689B7892C93A089B1898C91D9
:1006A00080648C93938D848D981306C00288F3899F
:1006B000E02D80818F7D80830895CF93DF93EC01BF
:1006C000888D8823C9F0EA89FB89808185FD05C072
:1006D000A889B9898C9186FD0FC00FB607FCF5CFAC
:1006E000808185FFF2CFA889B9898C9185FFEDCFF4
:1006F000CE010E943C03E7CFDF91CF910895CF92C6
:10070000DF92FF920F931F93CF93DF931F92CDB78A
:10071000DEB76C0181E0D60158968C9358975B96B2
:100720009C915B975C968C915C97981307C0509650
:10073000ED91FC915197808185FD2EC0F601038DCE
:1007400010E00F5F1F4F0F731127F02EF601848DFD
:10075000F81211C00FB607FCF9CFD6015096ED91F3
:10076000FC915197808185FFF1CFC60169830E947A
:100770003C036981EBCF838DE80FF11DE35AFF4FF6
:100780006083D6015B960C935B975296ED91FC913A
:100790005397808180620CC0D6015696ED91FC91F2
:1007A000579760835096ED91FC91519780818064BA
:1007B000808381E090E00F90DF91CF911F910F91A6
:1007C000FF90DF90CF900895BF92CF92DF92EF928B
:1007D000FF92CF93DF93EC016A017B01B22EE8898F
:1007E000F98982E08083411581EE58076105710522
:1007F000A1F060E079E08DE390E0A70196010E940E
:100800000C062150310941095109569547953795F4
:100810002795211580E1380798F0E889F989108239
:1008200060E874E88EE190E0A70196010E940C0652
:10083000215031094109510956954795379527951A
:10084000EC85FD853083EE85FF852083188EEC894D
:10085000FD89B082EA89FB89808180618083EA8991
:10086000FB89808188608083EA89FB898081806838
:100870008083EA89FB8980818F7D8083DF91CF919E
:10088000FF90EF90DF90CF90BF9008951F920F924E
:100890000FB60F9211242F938F939F93EF93FF9393
:1008A000E091F401F091F5018081E091FA01F0917D
:1008B000FB0182FD12C090818091FD018F5F8F73DB
:1008C0002091FE01821751F0E091FD01F0E0EC5122
:1008D000FE4F958F8093FD0101C08081FF91EF91C4
:1008E0009F918F912F910F900FBE0F901F90189591
:1008F0001F920F920FB60F9211242F933F934F9395
:100900005F936F937F938F939F93AF93BF93EF9377
:10091000FF9384EE91E00E943C03FF91EF91BF9121
:10092000AF919F918F917F916F915F914F913F9187
:100930002F910F900FBE0F901F90189584EE91E0AD
:100940000E94010321E0892B09F420E0822F089501
:100950001092E7011092E60188EE93E0A0E0B0E08B
:100960008093E8019093E901A093EA01B093EB0131
:1009700082E891E09093E5018093E40185EC90E0BA
:100980009093F1018093F00184EC90E09093F30157
:100990008093F20180EC90E09093F5018093F40154
:1009A00081EC90E09093F7018093F60182EC90E067
:1009B0009093F9018093F80186EC90E09093FB010D
:1009C0008093FA011092FD011092FE011092FF0136
:1009D00010920002089508950E94A9020E94EB045B
:1009E0000E945F00CEE2D3E00E9492002097E1F3E4
:1009F0000E942E03F9CFCF92DF92EF92FF920F93D6
:100A00001F93CF93DF937C016A01EB0100E010E0BC
:100A10000C151D0571F06991D701ED91FC910190C4
:100A2000F081E02DC7010995892B19F00F5F1F4F49
:100A3000EFCFC801DF91CF911F910F91FF90EF9001
:100A4000DF90CF9008956115710581F0DB010D9065
:100A50000020E9F7AD0141505109461B570BDC015D
:100A6000ED91FC910280F381E02D099480E090E00B
:100A700008950C942305DC01ED91FC910190F08127
:100A8000E02D099463E371E00C9423058F929F920B
:100A9000AF92BF92DF92EF92FF920F931F93CF938B
:100AA000DF93CDB7DEB7A1970FB6F894DEBF0FBEC8
:100AB000CDBF7C01F42FD52ECB0119A2223008F432
:100AC0002AE08E010F5D1F4F822E912CA12CB12C9C
:100AD0006F2F7D2DA50194010E940C06F22FD32EBD
:100AE000CA01015011096A3014F4E0E301C0E7E3E0
:100AF000E60FD801EC93232B242B252B49F7B801C3
:100B0000C7010E942305A1960FB6F894DEBF0FBE61
:100B1000CDBFDF91CF911F910F91FF90EF90DF90AC
:100B2000BF90AF909F908F900895CF92DF92EF92F9
:100B3000FF920F931F93CF93DF93EC016A017B0128
:100B40002115310579F4E881F9810190F081E02DDA
:100B5000642FDF91CF911F910F91FF90EF90DF9065
:100B6000CF9009942A303105E9F477FF1AC06DE27D
:100B70000E943B058C0144275527BA014C195D0999
:100B80006E097F092AE0CE010E944605800F911F61
:100B9000DF91CF911F910F91FF90EF90DF90CF9059
:100BA00008952AE0B701A601CE01DF91CF911F91F0
:100BB0000F91FF90EF90DF90CF900C9446050F932C
:100BC0001F93CF93DF93EC019A01AB01662757FD8A
:100BD0006095762F0E9495058C01CE010E944205FA
:100BE000800F911FDF91CF911F910F9108952115D3
:100BF000310541F4DC01ED91FC910190F081E02D93
:100C0000642F09940C9446059A01462F50E060E049
:100C100070E00C94F7050895A1E21A2EAA1BBB1BE5
:100C2000FD010DC0AA1FBB1FEE1FFF1FA217B307B8
:100C3000E407F50720F0A21BB30BE40BF50B661FCE
:100C4000771F881F991F1A9469F760957095809592
:100C500090959B01AC01BD01CF010895EE0FFF1FE0
:0C0C60000590F491E02D0994F894FFCF6A
:100C6C0001564D4450565F317C315F564D445056C1
:100C7C000D0A00564D4450455F31007C005F564DC7
:100C8C004450450D0A00564D4450435F005F564D8D
:100C9C004450430D0A004572726F723A20417474CD
:100CAC00656D707420746F2073657420612072659B
:100CBC0061642D6F6E6C79207661726961626C650E
:100CCC00206F7220646174612074797065206E6F7E
:100CDC007420737570706F727465640D0A00000077
:100CEC0000007F03FB0401031A030C035D036E6118
:0C0CFC006E00696E66006F7666002E00C8
:00000001FF
